{
  "_format": "hh-sol-artifact-1",
  "contractName": "SaveEth",
  "sourceName": "contracts/SaveEth.sol",
  "abi": [
    {
      "inputs": [],
      "name": "AddressZeroDetected",
      "type": "error"
    },
    {
      "inputs": [],
      "name": "InsufficientFund",
      "type": "error"
    },
    {
      "inputs": [],
      "name": "InvalidUser",
      "type": "error"
    },
    {
      "anonymous": false,
      "inputs": [
        {
          "indexed": false,
          "internalType": "address",
          "name": "_address",
          "type": "address"
        }
      ],
      "name": "accountCreatedSuccessfully",
      "type": "event"
    },
    {
      "anonymous": false,
      "inputs": [
        {
          "indexed": false,
          "internalType": "uint256",
          "name": "_amount",
          "type": "uint256"
        }
      ],
      "name": "depositSuccessful",
      "type": "event"
    },
    {
      "inputs": [],
      "name": "checkBalance",
      "outputs": [
        {
          "internalType": "uint256",
          "name": "",
          "type": "uint256"
        }
      ],
      "stateMutability": "view",
      "type": "function"
    },
    {
      "inputs": [
        {
          "internalType": "address",
          "name": "_address",
          "type": "address"
        }
      ],
      "name": "createAccount",
      "outputs": [],
      "stateMutability": "nonpayable",
      "type": "function"
    },
    {
      "inputs": [],
      "name": "deposit",
      "outputs": [],
      "stateMutability": "payable",
      "type": "function"
    },
    {
      "inputs": [
        {
          "internalType": "uint256",
          "name": "_amount",
          "type": "uint256"
        },
        {
          "internalType": "address",
          "name": "_addressTo",
          "type": "address"
        }
      ],
      "name": "transfer",
      "outputs": [],
      "stateMutability": "payable",
      "type": "function"
    },
    {
      "inputs": [
        {
          "internalType": "uint256",
          "name": "amount",
          "type": "uint256"
        }
      ],
      "name": "withdraw",
      "outputs": [],
      "stateMutability": "payable",
      "type": "function"
    }
  ],
  "bytecode": "0x608060405234801561001057600080fd5b50611097806100206000396000f3fe60806040526004361061004a5760003560e01c80632e1a7d4d1461004f5780639859387b1461006b578063b7760c8f14610094578063c71daccb146100b0578063d0e30db0146100db575b600080fd5b61006960048036038101906100649190610a5b565b6100e5565b005b34801561007757600080fd5b50610092600480360381019061008d9190610ae6565b610337565b005b6100ae60048036038101906100a99190610b13565b6104d5565b005b3480156100bc57600080fd5b506100c561080e565b6040516100d29190610b62565b60405180910390f35b6100e3610854565b005b600073ffffffffffffffffffffffffffffffffffffffff163373ffffffffffffffffffffffffffffffffffffffff160361014b576040517f287170f900000000000000000000000000000000000000000000000000000000815260040160405180910390fd5b6000811015610186576040517fd44b3c6200000000000000000000000000000000000000000000000000000000815260040160405180910390fd5b600160003373ffffffffffffffffffffffffffffffffffffffff1673ffffffffffffffffffffffffffffffffffffffff16815260200190815260200160002060009054906101000a900460ff16610209576040517ffd684c3b00000000000000000000000000000000000000000000000000000000815260040160405180910390fd5b60008060003373ffffffffffffffffffffffffffffffffffffffff1673ffffffffffffffffffffffffffffffffffffffff16815260200190815260200160002054905081811015610286576040517fd44b3c6200000000000000000000000000000000000000000000000000000000815260040160405180910390fd5b60003373ffffffffffffffffffffffffffffffffffffffff16836040516102ac90610bae565b60006040518083038185875af1925050503d80600081146102e9576040519150601f19603f3d011682016040523d82523d6000602084013e6102ee565b606091505b5050905080610332576040517f08c379a000000000000000000000000000000000000000000000000000000000815260040161032990610c20565b60405180910390fd5b505050565b600073ffffffffffffffffffffffffffffffffffffffff168173ffffffffffffffffffffffffffffffffffffffff16036103a6576040517f08c379a000000000000000000000000000000000000000000000000000000000815260040161039d90610c8c565b60405180910390fd5b60008173ffffffffffffffffffffffffffffffffffffffff163111610400576040517f08c379a00000000000000000000000000000000000000000000000000000000081526004016103f790610cf8565b60405180910390fd5b60018060008373ffffffffffffffffffffffffffffffffffffffff1673ffffffffffffffffffffffffffffffffffffffff16815260200190815260200160002060006101000a81548160ff02191690831515021790555060008060008373ffffffffffffffffffffffffffffffffffffffff1673ffffffffffffffffffffffffffffffffffffffff168152602001908152602001600020819055507f8d7035774e56f726af7c1fb8cc23fb323677b1e3fd489d98749d968a6487cc16816040516104ca9190610d27565b60405180910390a150565b600073ffffffffffffffffffffffffffffffffffffffff168173ffffffffffffffffffffffffffffffffffffffff1603610544576040517f08c379a000000000000000000000000000000000000000000000000000000000815260040161053b90610c8c565b60405180910390fd5b600073ffffffffffffffffffffffffffffffffffffffff163373ffffffffffffffffffffffffffffffffffffffff16036105b3576040517f08c379a00000000000000000000000000000000000000000000000000000000081526004016105aa90610c8c565b60405180910390fd5b600082116105f6576040517f08c379a00000000000000000000000000000000000000000000000000000000081526004016105ed90610d8e565b60405180910390fd5b600160003373ffffffffffffffffffffffffffffffffffffffff1673ffffffffffffffffffffffffffffffffffffffff16815260200190815260200160002060009054906101000a900460ff16610682576040517f08c379a000000000000000000000000000000000000000000000000000000000815260040161067990610dfa565b60405180910390fd5b60008060003373ffffffffffffffffffffffffffffffffffffffff1673ffffffffffffffffffffffffffffffffffffffff168152602001908152602001600020549050828111610707576040517f08c379a00000000000000000000000000000000000000000000000000000000081526004016106fe90610e66565b60405180910390fd5b826000803373ffffffffffffffffffffffffffffffffffffffff1673ffffffffffffffffffffffffffffffffffffffff16815260200190815260200160002060008282546107559190610eb5565b9250508190555060008273ffffffffffffffffffffffffffffffffffffffff168460405161078290610bae565b60006040518083038185875af1925050503d80600081146107bf576040519150601f19603f3d011682016040523d82523d6000602084013e6107c4565b606091505b5050905080610808576040517f08c379a00000000000000000000000000000000000000000000000000000000081526004016107ff90610f35565b60405180910390fd5b50505050565b60008060003373ffffffffffffffffffffffffffffffffffffffff1673ffffffffffffffffffffffffffffffffffffffff16815260200190815260200160002054905090565b600160003373ffffffffffffffffffffffffffffffffffffffff1673ffffffffffffffffffffffffffffffffffffffff16815260200190815260200160002060009054906101000a900460ff166108e0576040517f08c379a00000000000000000000000000000000000000000000000000000000081526004016108d790610fa1565b60405180910390fd5b600073ffffffffffffffffffffffffffffffffffffffff163373ffffffffffffffffffffffffffffffffffffffff160361094f576040517f08c379a000000000000000000000000000000000000000000000000000000000815260040161094690610c8c565b60405180910390fd5b60003411610992576040517f08c379a00000000000000000000000000000000000000000000000000000000081526004016109899061100d565b60405180910390fd5b346000803373ffffffffffffffffffffffffffffffffffffffff1673ffffffffffffffffffffffffffffffffffffffff16815260200190815260200160002060008282546109e0919061102d565b925050819055507f700a73fab5a232cbc3f7acbd5e9483888a10371d3154174fb4fc196afe221efb34604051610a169190610b62565b60405180910390a1565b600080fd5b6000819050919050565b610a3881610a25565b8114610a4357600080fd5b50565b600081359050610a5581610a2f565b92915050565b600060208284031215610a7157610a70610a20565b5b6000610a7f84828501610a46565b91505092915050565b600073ffffffffffffffffffffffffffffffffffffffff82169050919050565b6000610ab382610a88565b9050919050565b610ac381610aa8565b8114610ace57600080fd5b50565b600081359050610ae081610aba565b92915050565b600060208284031215610afc57610afb610a20565b5b6000610b0a84828501610ad1565b91505092915050565b60008060408385031215610b2a57610b29610a20565b5b6000610b3885828601610a46565b9250506020610b4985828601610ad1565b9150509250929050565b610b5c81610a25565b82525050565b6000602082019050610b776000830184610b53565b92915050565b600081905092915050565b50565b6000610b98600083610b7d565b9150610ba382610b88565b600082019050919050565b6000610bb982610b8b565b9150819050919050565b600082825260208201905092915050565b7f4661696c6564207769746864726177616c000000000000000000000000000000600082015250565b6000610c0a601183610bc3565b9150610c1582610bd4565b602082019050919050565b60006020820190508181036000830152610c3981610bfd565b9050919050565b7f41646472657373207a65726f2064657465637465640000000000000000000000600082015250565b6000610c76601583610bc3565b9150610c8182610c40565b602082019050919050565b60006020820190508181036000830152610ca581610c69565b9050919050565b7f4e6f7420616e2045746865722061646472657373000000000000000000000000600082015250565b6000610ce2601483610bc3565b9150610ced82610cac565b602082019050919050565b60006020820190508181036000830152610d1181610cd5565b9050919050565b610d2181610aa8565b82525050565b6000602082019050610d3c6000830184610d18565b92915050565b7f43616e2774207472616e73666572207a65726f20616d6f756e74000000000000600082015250565b6000610d78601a83610bc3565b9150610d8382610d42565b602082019050919050565b60006020820190508181036000830152610da781610d6b565b9050919050565b7f496e76616c696420757365720000000000000000000000000000000000000000600082015250565b6000610de4600c83610bc3565b9150610def82610dae565b602082019050919050565b60006020820190508181036000830152610e1381610dd7565b9050919050565b7f496e73756666696369656e742066756e64000000000000000000000000000000600082015250565b6000610e50601183610bc3565b9150610e5b82610e1a565b602082019050919050565b60006020820190508181036000830152610e7f81610e43565b9050919050565b7f4e487b7100000000000000000000000000000000000000000000000000000000600052601160045260246000fd5b6000610ec082610a25565b9150610ecb83610a25565b9250828203905081811115610ee357610ee2610e86565b5b92915050565b7f4661696c6564205472616e736665720000000000000000000000000000000000600082015250565b6000610f1f600f83610bc3565b9150610f2a82610ee9565b602082019050919050565b60006020820190508181036000830152610f4e81610f12565b9050919050565b7f596f7520646f206e6f74206861766520616e206163636f756e74000000000000600082015250565b6000610f8b601a83610bc3565b9150610f9682610f55565b602082019050919050565b60006020820190508181036000830152610fba81610f7e565b9050919050565b7f5a65726f206465706f736974206e6f7420616c6c6f7765640000000000000000600082015250565b6000610ff7601883610bc3565b915061100282610fc1565b602082019050919050565b6000602082019050818103600083015261102681610fea565b9050919050565b600061103882610a25565b915061104383610a25565b925082820190508082111561105b5761105a610e86565b5b9291505056fea264697066735822122062c0c97d2adcd6743a10296f28e151d55d0df2b8b94f0604bbcf6b9c2cb6982064736f6c63430008180033",
  "linkReferences": {},
  "deployedLinkReferences": {}
}